:020000040800F2
:10000000B0AB012059030008CF280008CF23000817
:10001000CD280008952100080D39000800000000D7
:10002000000000000000000000000000A102000825
:100030004922000800000000F50200082D330008E6
:1000400073030008730300087303000849300008B5
:1000500073030008730300087303000873030008A8
:100060007303000873030008730300087303000898
:100070007303000873030008730300087303000888
:100080007303000873030008730300087303000878
:100090007303000873030008730300084D2200086F
:1000A0007303000873030008730300087303000858
:1000B00073030008B53300087303000873030008D6
:1000C0007303000873030008730300087303000838
:1000D000730300086D3600087D360008613700089C
:1000E00073030008252C000873030008730300083D
:1000F0007303000873030008730300087303000808
:1001000073030008730300087303000873030008F7
:1001100073030008730300087303000873030008E7
:100120007303000873030008730300089921000893
:1001300073030008730300087303000873030008C7
:1001400073030008730300087303000873030008B7
:1001500073030008730300087303000873030008A7
:100160007303000873030008730300087303000897
:100170007303000873030008730300087303000887
:10018000730300087303000800F002F800F078F829
:100190000AA090E8000C82448344AAF10107DA45E2
:1001A00001D100F06DF8AFF2090EBAE80F0013F0BC
:1001B000010F18BFFB1A43F001031847F4D50700DD
:1001C00014D607000A444FF0000C10F8013B13F05E
:1001D000070408BF10F8014B1D1108BF10F8015BA0
:1001E000641E05D010F8016B641E01F8016BF9D193
:1001F00013F0080F1EBF10F8014BAD1C0C1B09D1EA
:100200006D1E58BF01F801CBFAD505E014F8016B5B
:1002100001F8016B6D1EF9D59142D6D370470000ED
:100220000023002400250026103A28BF78C1FBD8FF
:10023000520728BF30C148BF0B60704766292DF0B8
:10024000B886642900F0BC81782900F0F581732913
:1002500000F0DB87002070471FB52DF0A5FE01F0F0
:100260006BF80400002000212DF08CFC401C606025
:10027000002000212DF09CFCE0601FBD10B510BDDA
:1002800001F06CFB1146FFF7E7FF21F011FE01F0D2
:100290008AFB03B4FFF7F2FF03BC04F044FF000045
:1002A0002A4B19680868B0E8F04F80F30988BFF35B
:1002B0006F8F4FF0000080F311887047000000003E
:1002C00006480068006880F3088862B661B6BFF32C
:1002D0004F8FBFF36F8F00DF00BF00BF08ED00E05E
:1002E000DFF80C00016841F470010160704700BF45
:1002F00088ED00E0EFF30980BFF36F8F134B1A68AE
:100300001EF0100F08BF20ED108A20E9F04F10609A
:1003100008B44FF0500080F31188BFF34F8FBFF344
:100320006F8F2CF0DFFF4FF0000080F3118808BCC6
:1003300019680868B0E8F04F1EF0100F08BFB0EC65
:10034000108A80F30988BFF36F8F7047FC0000208C
:10035000EFF30580704700000948804709480047CF
:10036000FEE7FEE7FEE7FEE7FEE7FEE7FEE7FEE765
:10037000FEE7FEE704480549054A064B70470000C2
:100380005933000889010008B0990120B0AB012061
:10039000B09B0120B09B0120704753EA020C00F093
:1003A00069802DE9F04B4FF00006002B1FBFB3FA18
:1003B00083F503FA05F424FA05F65E4012BF1643EE
:1003C000B2FA82F502FA05F4C5F120051EBF22FA41
:1003D00005FC44EA0C04203556EA044C4FEA144468
:1003E00018BF641C4FF000084FF00009904271EBF9
:1003F000030C39D3002919BFB1FA81F701FA07F6C6
:10040000B0FA80F700FA07F6C7F120071EBF20FAFE
:1004100007FC46EA0C062037B6FBF4FCA7EB050701
:10042000103F07F01F0BCBF120060CFA0BFB2CFA48
:1004300006F644BFB3460026202FA4BF5E464FF009
:10044000000B5BEA060C08BF4FF0010B19EB0B0920
:10045000ABFB027C48EB0608C01B06FB02CC0BFB87
:1004600003CC71EB0C01C1E70B46024641464846FE
:10047000BDE8F08B13B54FF000004FF00001AFF373
:100480000080BDE81C40704710B54C1084EA53044E
:1004900004D54042C1F1000138BF491E1B4204D5BA
:1004A0005242C3F1000338BF5B1EFFF776FF14F022
:1004B000804F04D04042C1F1000138BF491E14F002
:1004C000004F04D05242C3F1000338BF5B1E10BD81
:1004D0000FB4044910B503AA029800F09BFE10BCAB
:1004E0005DF814FB440000200FB47CB50C0009AA91
:1004F000009001D02044401E084B7B446946019087
:10050000089800F050FE05461CB10020694600F036
:100510005DFE28467CBC5DF814FB0000D90C000091
:1005200070B5044685690068C10601D5302600E033
:100530002026C00707D070BDD4E90121304690477E
:10054000206A401C20626D1EF6D570BD70B5044651
:1005500085690078C00707D170BDD4E9012120204A
:100560009047206A401C20626D1EF6D570BD70B5A4
:100570000C460546012A05D02878800600D5EA6990
:10058000002302E0012305E05B1C934202D2E05C01
:100590000028F9D1A869E618C01AA861286A184489
:1005A00028622846FFF7BCFF04E0D5E9012114F8D2
:1005B000010B9047B442F8D32846FFF7C7FF70BD40
:1005C0002DE9F0410646002410687529314616A52C
:1005D00010D0AFF30080002802DA404213A507E0F4
:1005E00031688A0701D512A502E0490704D511A593
:1005F000012401E0AFF3008000210A2206F1240764
:1006000009E0B0FBF2FCB0FBF2F302FB1C0030305F
:1006100078541846491C0028F3D123462A46304610
:10062000BDE8F04100F052BB000000002D000000CA
:100630002B0000002000000070B504460D46214646
:100640001068AFF300802188090502D50F4A7A446B
:1006500002E00E4A7A440E32002104F1240305E040
:1006600000F00F060009965D5E54491C0028F7D182
:1006700020780023000704D5702D02D009B1022391
:1006800011322046BDE8704000F020BB52CA07007E
:100690002DE9F05F894604464FF0000ADFF874B197
:1006A000FB44C0F820A02046E1688847002874D0A9
:1006B000252806D0D4E901219047206A401C2062F9
:1006C000F1E700265F462046E16888472028054676
:1006D00007DB312D05D2781910F8200C08B106433C
:1006E000F1E7B00701D526F00406C4F81CA00027E6
:1006F000C4F818A02A2D09D0284603F03EF938B3D3
:1007000004EB8708303DC8F8185019E059F8041B6D
:10071000204604EB87029161E1688847012F054676
:1007200018D1E069002820DA26F020061DE0D8F86C
:10073000180000EB800005EB40003038C8F81800C6
:100740002046E1688847054603F017F90028EED1F6
:10075000012F0AD02E2D08D12046E16888477F1C42
:100760000546022F46F02006C4DBA069002803DA04
:10077000404246F00106A061F00701D026F01006C5
:100780006C2D0BD0682D09D04C2D39D06A2D35D069
:10079000742D35D07A2D33D016E038E0E1682F463D
:1007A00020468847B842054609D16C2F26D04FF421
:1007B0008060E168064320468847054604E06C2FC8
:1007C0001AD04FF4807006430DB3A5F141001928EB
:1007D00002D8203546F400664A462946204626605F
:1007E0004E46FFF72BFD80B101280BD0F61D26F0F9
:1007F000070000F1080956E74020E4E78020D8E729
:100800000020D6E706F104094DE7284652E7206AA2
:10081000BDE8F09F28CA07000FB400B58DB010A93D
:10082000099000910B904FF0FF300A9000200C903F
:10083000064878440690064878446A4607900F991F
:1008400009A800F00DFD0DB05DF814FB4B0A000087
:10085000630A00002DE9FF5F1D464FF0FF3B914604
:100860004FF000085F46D5E90146A96901987F1C51
:100870008847296A824688470028F6D1BAF1FF3FA7
:100880000CD0002E24F4C06419DD600614D5BAF132
:100890002B0F09D0BAF12D0F0ED103E0584604B04A
:1008A000BDE8F09F44F48064A96901987F1C8847E3
:1008B000761E8246002E02DDBAF1300F03D0B9F168
:1008C000000F26D032E0A969761E01987F1C44F4FF
:1008D00000748847002E824605DDBAF1780F06D0F5
:1008E000BAF1580F03D0B9F1000F10D01EE0B9F1E2
:1008F000000F02D0B9F1100F18D1A969761E019826
:100900007F1C24F4007488478246102002E00820EF
:1009100000E00A20814609E0A96908FB0908761E63
:1009200001987F1C44F4007488478246002E05DD40
:100930004946504600F080FC0028EDDAE96901984C
:100940008847A00502D46FF00100A8E7E00725D191
:10095000600613D5600502D5C8F1000000E04046EE
:1009600029680A1D2A600968220501D5087015E06A
:10097000220701D5088011E008600FE02868011DFA
:1009800029600068210502D580F8008006E0210773
:1009900002D5A0F8008001E0C0F8008038467EE76C
:1009A00070B5064600F08EF90468054630460A2206
:1009B000002100F085FC2C6070BD401ECAB210F80A
:1009C000011F8A4202D00029F9D10020704730B5BA
:1009D00005460B462A4613F8014B12F8010B08B1E5
:1009E000A042F8D01CB1002802D06D1CF1E72846C7
:1009F00030BD40EA010310B59B070FD1042A0DD387
:100A000010C808C9121F9C42F8D020BA19BA8842EF
:100A100001D9012010BD4FF0FF3010BD1AB1D3072E
:100A200003D0521C07E0002010BD10F8013B11F864
:100A3000014B1B1B07D110F8013B11F8014B1B1B8D
:100A400001D1921EF1D1184610BD40EA01030246C1
:100A500030B59B0710D14FF0013400E008C208C93F
:100A60001D1B9D4315EAC41FF8D013F0FF0102F8C7
:100A7000011B0DD01B0AF8E711F8013B002B02F80F
:100A8000013B05D011F8013B002B02F8013BF3D1EB
:100A900030BD10B5431C02E010F8011B71B1810795
:100AA000FAD14FF0013202C88C1A8C4314EAC211F9
:100AB000F9D0C01A0A0603D0C01E10BDC01A10BD5E
:100AC0000A0401D0801E10BD0902FCD0401E10BDDA
:100AD00010B5203AC0F00B80B1E81850203AA0E8D9
:100AE0001850B1E81850A0E81850BFF4F5AF5FEA0D
:100AF000027C24BFB1E81850A0E8185044BF18C9C0
:100B000018C0BDE810405FEA827C24BF51F8043B66
:100B100040F8043B08BF7047D20728BF31F8023BBA
:100B200048BF11F8012B28BF20F8023B48BF00F84E
:100B3000012B704702F0FF0343EA032242EA02421C
:100B400000F002B84FF000020429C0F0128010F04B
:100B5000030C00F01B80CCF1040CBCF1020F18BF99
:100B600000F8012BA8BF20F8022BA1EB0C0100F02C
:100B70000DB85FEAC17C24BF00F8012B00F8012BFF
:100B800048BF00F8012B70474FF0000200B5134634
:100B900094469646203922BFA0E80C50A0E80C509D
:100BA000B1F12001BFF4F7AF090728BFA0E80C504E
:100BB00048BF0CC05DF804EB890028BF40F8042B47
:100BC00008BF704748BF20F8022B11F0804F18BFB4
:100BD00000F8012B704710B5044610F0030F08BF52
:100BE00011F0030F40F015804FF0013E121FC0F2CC
:100BF0000E8051F8043BA3EB0E0C2CEA030C1CEA0C
:100C0000CE1C08BF40F8043BF0D0A1F1040102F172
:100C10000402521E08DB11F8013B002B00F8013BD7
:100C2000F7D11146FFF78EFF204610BD4FF0013C73
:100C300050F8042B51F8043B9A4221D1A2EB0C034B
:100C4000934313EACC1317D150F8042B51F8043B0B
:100C50009A4215D1A2EB0C03934313EACC130BD1A8
:100C600050F8042B51F8043B9A4209D1A2EB0C0333
:100C7000934313EACC13DBD04FF00000704700BF62
:100C8000D01A01BAB1FA81F101F0180122FA01F08B
:100C9000CB40C1F12001DBB2C0B2C01A2CFA01F383
:100CA000D11A914311EAC311E6D1704770477047DA
:100CB0007047000010B500F03FFB001D10BD00BFE5
:100CC000C5CE0200004870474C9901202DE9F0473D
:100CD0000D4699469246044600F1240801688806AC
:100CE00004D5E06921F01001216000E00120A84254
:100CF00001DD471B00E00027A1697A1902EB09001A
:100D0000081AA0612078C00602D42046FFF708FC2C
:100D1000002608E0D4E901211AF806009047206A6D
:100D2000401C761C20624E45F4DB2078C0060AD5B4
:100D30002046FFF7F5FB06E0D4E90121302090477B
:100D4000206A401C2062381EA7F10107F4DC07E08E
:100D5000D4E9012118F805009047206A401C206260
:100D6000281EA5F10105F3DC2046FFF7EFFB2078F4
:100D7000000602D50220BDE8F0870120FBE770479E
:100D80002DE9FF4F0C461E464FF0FF378BB0D2E9DE
:100D90000001DDF860800A908A46C1F30A5505B962
:100DA0003D46002108464FF00000BAF1000F00F464
:100DB000400005DA00EB80004FF4400101EA5000EA
:100DC0004FEA9059B9F1010F00DDB9460A9850EA8F
:100DD0004A000ED044F61050A5F2FF3545432F14BB
:100DE000B8F1000F1ED07542291E1EDDC9F10002A8
:100DF0001CE0B8F1010F4FF0000001D0302103E0FA
:100E0000F24305E02154401CB042FBDB3046002297
:100E1000002121540B99C1F80880C1E900200FB0CE
:100E2000BDE8F08FBD1B6D1CDEE74A4600DA694263
:100E300006A800F01DFD06AB93E8070003AB83E8AE
:100E4000070050460A9900F0B7FD8DE80700A0F5AD
:100E500000501F3800900398002D0ADD42F21F0158
:100E60004A460844002303A90390684601F020F88D
:100E700009E0A0F500504A461F38002303A903905B
:100E8000684601F02AF88DE807000004000C03D042
:100E90004FF0FF30410800E01046B8F1000F03D0DA
:100EA0000022009215461EE0751E05D400F048FA97
:100EB000303262556D1EF9D5B3460122084302D087
:100EC00000227F1C04E02078302801D100227F1E00
:100ED000002A099784D01DE0112D07DA00F030FABE
:100EE000303262556D1C50EA0102F5D1084302D040
:100EF0000098C8B10EE00021681E05E0235C625C2A
:100F000063542254401E491C8142F7DBAB46A81BA8
:100F1000401E0990002004F80B000B98099AC0F8B5
:100F20000880C0E9002B7AE711264FF0000857E748
:100F30002DE9F04F88460446D21D22F0070191B0FA
:100F4000D1E90001CDE90A0102F0E1FC02460B986B
:100F5000C00F01D02D2007E02068810701D52B208C
:100F600002E0202101EAC000032A099001D0072AEB
:100F700005DB03464146204600F030FA0BE12078BD
:100F8000800601D5E06900E00620B8F1650F8146D2
:100F900006D0B8F1660F18D0B8F1670F70D131E004
:100FA0000020B9F1110F009001DB112301E009F1DC
:100FB00001030AAA01A90CA8FFF7E2FEDDE90C7003
:100FC000002609F10105834647E001204B460090C9
:100FD0004FF000470AAA01A90CA8FFF7D1FEDDE9EE
:100FE0000DB00C995D46002610B909F101000D18ED
:100FF000B9EB050003D4C0F1FF3609F10105A5EBFB
:1010000009002BE0B9F1010F01DA4FF001090020CE
:10101000B9F1110F0090484601DD112300E00346AD
:101020000AAA01A90CA8FFF7ABFEDDE90C704D463A
:1010300000268346207800070AD4AB4500DA5D46D7
:1010400001A8012D04DD411911F8011C302907D038
:101050004F4502DA17F1040F04DA012082460FE04F
:101060006D1EEEE7002F02DCED1B3E4403E0781C12
:10107000A84200DD7D1CB81B00F1010A4FF00047BB
:101080002078000703D4AA4501DB4FF0FF3A002186
:10109000B7F1004F0DF143088DF8431024D0022022
:1010A0002B23002F01DA7F422D230A21021EA0F1FB
:1010B000010000DC5FB197FBF1FC97FBF1F201FB53
:1010C0001C7C17460CF1300C08F801CDEEE7A8F1B6
:1010D000010003702188090501D5452100E0652143
:1010E000A0F1010800F8011C09980FA9A1EB08075D
:1010F000FF1D00B10120411901EBEA70A1693844DC
:10110000081A401EA0612078C00602D42046FFF7CE
:1011100007FA099828B1D4E901219047206A401CB8
:1011200020622078C00622D52046FFF7F9F91EE09C
:10113000002E04DBB34502DD01A8805D00E0302015
:10114000D4E901219047206A401C2062761CAAF154
:1011500001005FEA000A0AD100F0EEF8C0680168F9
:10116000405CD4E901219047206A401C2062281E7F
:10117000A5F10105DCDC07E0D4E9012118F8010B39
:101180009047206A401C2062381EA7F10107F3DC5B
:101190002046FFF7DBF9032011B041E601694A1C44
:1011A00002610878704700B58FB0CDE901310021A8
:1011B000059105497944CDE9031011466846FFF7CA
:1011C00067FA0FB000BD0000E5FFFFFF0A6802F8F4
:1011D000010B0A607047D1E900239A4202D2531CE6
:1011E0000B601070704710B5436913B1AFF3008006
:1011F00001E0FFF7BCF9012010BD127800F12401D5
:101200000A7000224A700122EDE711684FF0FF32A8
:10121000E9E70000074B70B50D467B44FFF7C3FFBD
:101220000446284600F096FB10B14FF0FF3070BD29
:10123000204670BDFFDC00003A2800D2303820F094
:101240002002412A01D3A2F13700884201D34FF096
:10125000FF307047026811441378016018467047E8
:10126000D1600549794451610449794411620021F2
:101270001161114600F0F2B8EDFFFFFF5D010000C3
:10128000426842B1016811F8013B23B1521EC0E926
:101290000012184670470121C160881E70474268DD
:1012A0005AB1C368016843B983688B4205D0491EAF
:1012B000521CC0E90012002070474FF0FF30704709
:1012C0002DE9F04791460F4680460446002614F863
:1012D000015B2DB1FFF7EEFC0068405DC007F6D161
:1012E0002B2D02D02D2D18D0641E4A46394620469B
:1012F00000F06EFA27B13968A14201D1C7F8008029
:101300004FF0020471050BD54042002803DDFFF7C2
:10131000D9FC0460A007BDE8F08746F48066E4E7E6
:101320000028F8DAFFF7CEFC04606FF00040F2E727
:10133000004870474C990120004870476C99012083
:1013400030B5B0F10A024FEA900E71F100034EEA97
:10135000817EB0EB0E0061EB91014FEA101E4EEA68
:10136000017E10EB0E0041EB11114FEA102E4EEAF8
:10137000016E10EB0E0041EB11214FEA104E4EEAC8
:10138000014E10EB0E0041EB1141401841F10001FC
:101390004FEAD00040EA41704FEAD10110EB8005DE
:1013A0004FEA810444EA907444EB01046D1944EB64
:1013B0000404521BA3414FF0000348BF0A3200D57A
:1013C00030BD401C41F1000130BD10B50446FFF7AF
:1013D00071FC0068005D00F0010010BD2DE9F041D6
:1013E0001F46044603260168072A01F4006004DB57
:1013F00008B116A505E016A503E008B115A500E0A3
:1014000015A521F010002060A069C01EA0610FB1D9
:10141000401EA0612046FFF783F84FB1D4E90121B7
:1014200038469047206A401C2062C01C206206E0BB
:10143000206AFAE7D4E9012115F8010B9047761EDE
:10144000F8D22046FFF782F8BDE8F0814E414E0009
:101450006E616E00494E4600696E66002DE9F34FDD
:101460004FF0000A0C4656468DB001200C9001F159
:101470000C000B9062690B9801219047051E2DD03E
:10148000252D2CD0216A8847C0B162690B980121B3
:101490009047216A88470028F7D16269411E0B985E
:1014A000904700E0761CA1690D988847216A88471B
:1014B0000028F7D1E1690D988847DBE7A1690D980D
:1014C0008847A842074601D1761CD3E7E1690D9809
:1014D00088477F1C02D1BAF1000F6FD06BE16269BF
:1014E0000B9800273D46394690472A2804D1626967
:1014F0000B98012190470125DFF8D08262690B9893
:1015000001219047A0F130010A290AD24745E5DCC4
:1015100007EB870100EB4107303FDFD445F01005B2
:10152000ECE7E90601D46FF000476C280AD04C289C
:1015300014D0682815D06A280DD074281CD07A28B9
:101540001AD01DE062690B98012190476C2802D0E7
:1015500045F0040514E045F002050DE045F02005D6
:101560000AE062690B9801219047682802D045F093
:10157000080505E045F4006562690B980121904774
:10158000C4E9015765283DD019DC58287AD00CDC15
:10159000452837D004DC252826D041289ED131E0CB
:1015A00046282FD0472899D12CE05B2877D0612896
:1015B00028D063287CD0642823D15AE0F6E06F2835
:1015C00048D008DC66281DD067281BD0692821D0A8
:1015D0006E2816D127E0702845D0732868D075286A
:1015E00047D078280DD14DE0A1690D98884725286E
:1015F00005463FF469AFE1690D9888476D1C3FF4DB
:101600006AAFD8E00D9923466A466FF00100AFF348
:101610000080C5E045F0400023464FF000026060C6
:10162000A80736D43EE0E8077FF447AF2068011DE5
:1016300021600068290501D506701BE7290701D53F
:10164000068017E7A90703D5F117C0E9006111E784
:1016500006600FE745F0400023464FF00802606047
:10166000A80716D41EE040F60E0125EA01006060CE
:1016700016E045F0400023464FF00A026060A807DC
:1016800007D40FE045F040006060A80708D5234666
:1016900010220D996FF00100AFF3008080E007E0A9
:1016A000102223460D996FF00100FFF7D3F877E081
:1016B0004FF0000963284F46C8464B46CB4602D040
:1016C0005B2806D038E0E80601D40120A06001279D
:1016D00032E06269D4F80CB00B98012190475E2883
:1016E00007D14FF0010949466269D4F80CB00B9854
:1016F0009047216939B900210A4603AB43F82120FC
:10170000491C0829FADBD8B3216949B308F101085B
:1017100062690B98012190475D28F4D1B9F1000F5F
:1017200009D0002003A951F82020D24341F82020FD
:10173000401C0828F7DB03AB2069002820794FEA1A
:1017400040701ED05B462246CDF80080CDE901975F
:101750000D9900286FF0010020DAAFF300801FE040
:10176000C11703AA00EBD1614B1121F01F0102EB5D
:101770008302411A13680120884003431360C7E7BE
:1017800019E00D99224600286FF00100009702DA57
:10179000AFF3008004E0AFF3008001E0AFF300801E
:1017A00000280ADA401C06D10C9820B14FF0FF3017
:1017B0000FB0BDE8F08F5046FAE7E90701D10AF112
:1017C000010A064400200C9054E60000CCCCCC0C5E
:1017D0002DE9F05F824615468B4600270AF1010489
:1017E000B9460078302801D09DB113E014F8010B00
:1017F0000127782803D0582801D045B10AE00DB15F
:10180000102D07D1002714F8010B102502E0082540
:1018100000E00A250026B0460EE005FB080005FBA7
:1018200006F101271FFA80F801EB1046B6F5803F5C
:1018300000D3B94614F8010B2946FFF7FDFC002838
:10184000EBDABBF1000F05D00FB1641E00E0544687
:10185000CBF80040B9F1000F06D0FFF733FA0221B0
:101860000160C81EBDE8F09F48EA0640FAE70000A4
:101870002DE9F047814616468AB0354878440DC8B0
:101880008DE80D0032487844801C03AC0DC884E814
:101890000D0041F69B300844372190FBF1F290FB9C
:1018A000F1F5A5F1800501FB12041B3C02D5644251
:1018B000012000E00020DFF898A080460027FA44CD
:1018C000AAF1BE0A0EE0E0070AD03246684607EBEE
:1018D000470101230AEB810100F0FFFA8DE80700C0
:1018E00064107F1C002CEED1194F7F44AE3F19E0ED
:1018F000E80715D007EB04100DF1180A90E80E0068
:101900008AE80E00C068F04201D19819089032466A
:10191000012306A903A800F0E0FA03AB83E807005F
:101920006D10641C002DE3D14FF00103324669466F
:10193000B8F1000F03A802D000F0BAFA01E000F0FD
:10194000CCFAC9E90001C9F808200AB0BDE8F0875F
:10195000DCB80700007B00F0800070477546FFF799
:10196000E7FCAE4605006946534620F00700854671
:1019700018B020B5FEF7FEFCBDE820404FF0000691
:101980004FF000074FF000084FF0000B21F0070167
:10199000AC46ACE8C009ACE8C009ACE8C009ACE8AA
:1019A000C0098D46704710B50446AFF3008020464D
:1019B000BDE81040FEF76DBC5FEA400C08BF91F037
:1019C000000F4FEA8C234FEAC12243EA51514FEAFC
:1019D0001C5018BF00F5F0404FEA300018BF41F02E
:1019E00000415FEA6C5C00F02980BCF1FF3F08BF5A
:1019F00040F080407047130C06BF12044FF0100CEB
:101A00004FF0000C130E04BF12020CF1080C130F60
:101A100004BF12010CF1040C930F04BF92000CF1EF
:101A2000020CD30F04BF52000CF1010C11464FF011
:101A30000002A0F11F00A0EB0C00704711F0004F56
:101A400008BF704731F000413FF4D5AF0B0C06BF23
:101A500009044FF0100C4FF0000C0B0E04BF0902EC
:101A60000CF1080C0B0F04BF09010CF1040C8B0FD7
:101A700004BF89000CF1020CCB0F04BF49000CF12C
:101A8000010CCCF12003A0EB0C0022FA03F302FAC4
:101A90000CF241EA030100F10100704720F07F4C95
:101AA00080EA030023F07F47ACEB070303F57C5388
:101AB00000F0004003F1FF032DE980494FEA154B88
:101AC00009B44FEA144325EA0B4E24EA03480FF207
:101AD000042606EB132749083E785FEA320203FB2F
:101AE0000667C7F5000707FB06F64FEA54374FEACB
:101AF000D64606F1020607FB066CCCF1005C4FEA05
:101B00001C472CEA074C07FB06F40CFB06F504EB1C
:101B100015464FEA961634BF00204FF000404FEABA
:101B2000D13706FB07FC4FEA1C4C0CFB0BF7D21B12
:101B300003FB0CF761EB07010CFB0EF7B0EB074062
:101B400072EB17420CFB08F734BFA2EB0742B2EB73
:101B5000074261EB17414FEA0C444FEA910706FB3D
:101B600007FC4FEA1C4C0CFB0BF7B0EBC74072EBC9
:101B7000573203FB0CF734BFA2EBC742B2EBC742AC
:101B800061EB57310CFB0EF7B0EBC70072EB5772ED
:101B90000CFB08F734BFA2EBC702B2EBC70261EB44
:101BA0005771039F4FEA816141EA921104EBCC0423
:101BB0004FEAD1374FEA826206FB07FC42EA9012F5
:101BC0004FEA80604FEA1C4C0CFB0BF7D21B03FB67
:101BD0000CF761EB07010CFB0EF7B0EB074072EB63
:101BE00017420CFB08F734BFA2EB0742B2EB0742E7
:101BF00061EB17414FEA8C554FEA910704EB9C24A7
:101C000006FB07FC4FEA1C4C0CFB0BF7B0EBC74084
:101C100072EB573203FB0CF734BFA2EBC742B2EBB7
:101C2000C74261EB57310CFB0EF7B0EBC70072EB0C
:101C300057720CFB08F734BFA2EBC702B2EBC70226
:101C400061EB577115EB4C254FEA816141EA921126
:101C50004FEA82624FEAD13742EA901206FB07FC54
:101C600044F100044FEA80604FEA1C4C0CFB0BF778
:101C7000D21B03FB0CF761EB07010CFB0EF7B0EB7B
:101C8000074072EB17420CFB08F734BFA2EB074288
:101C9000B2EB074261EB174115EB1C154FEA81319E
:101CA00041EA92414FEA823242EA90424FEA803062
:101CB0004FEA0C7644F1000448EA03434EEA0B482D
:101CC0004FF0000EB2EB080C71EB030724BF624625
:101CD00039464EEB0E0E4FF0000B001852414941B1
:101CE0004BEB0B0BB2EB080C71EB03077BF1000B1A
:101CF00024BF624639464EEB0E0E4FF0000B001823
:101D0000524149414BEB0B0BB2EB080C71EB030753
:101D10007BF1000B24BF624639464EEB0E0E51EAB2
:101D2000020718BF46F0010616EB0E7655F10002C9
:101D300054F1000103D5BDE88901BDE80088BDE884
:101D40008901BDE80048B619524141EB0101A3F1F8
:101D50000103704780807F7E7D7C7B7A79787776FF
:101D600076757473727171706F6E6E6D6C6C6B6A78
:101D70006A69686867666665646463636261616016
:101D8000605F5F5E5E5D5D5C5C5B5B5A5A59595893
:101D900058575756565555555454535352525251FD
:101DA000515050504F4F4F4E4E4D4D4D4C4C4C4B53
:101DB0004B4B4A4A4A49494948484847474747469A
:101DC00046464545454444444443434343424242D6
:101DD00042414141002B9C4630D477002BD01CB5AA
:101DE0004FEA370703B44FF010004FF01001BAF17B
:101DF000000F06D0BCF1000FDCBF40F0080040F03F
:101E000008014FF000000FBCBDE810400BF1010BC2
:101E1000BBF1010F08BF5FEA170722BF12F10102F1
:101E200011F101014FF0004143F1000300F00040C7
:101E300043EA00007047F9D35708D0E746EA064660
:101E400013F1400F4FEA16461FDD13F1200FDFBFDD
:101E500016430A46002120335B42BED0C3F120075F
:101E600046EA064602FA07F74FEA164646EA07062A
:101E7000C3F1200722FA03F201FA07F721FA03F16E
:101E80004FF0000342EA0702A7E746EA020646EAE5
:101E900006464FEA164646EA0106BCBF46EA064633
:101EA000360C4FF000034FF000024FF0000194E7B2
:101EB0002DE9804C9A46934670B491E8380007C8E3
:101EC00031EA400C48BF34EA430C03D5FFF7E6FD86
:101ED000FFF780FFF0BCBDE8008C2DE9804C9A46EE
:101EE000934670B491E8380007C810F0804F08BFDF
:101EF00013F0804F03D100F005F8FFF76BFFF0BC43
:101F0000BDE8008C20F07F4780EA030023F07F4C7F
:101F100007EB0C03A3F57C5300F00040A3F1FE0394
:101F200092F0000F00F0B38095F0000F00F0778082
:101F30002DE901494FEA11404FEA144621EA0048D1
:101F400000FB06FC24EA064708FB06F607FB08F838
:101F500000FB07F718EB06484CEB164C4FEA124B08
:101F600018EB07484FEA15464CEB174022EA0B4E98
:101F70000BFB06FC25EA06470EFB06F607FB0EFEEA
:101F80000BFB07F71EEB064E4CEB164C4FF0000612
:101F90001EEB074E4CEB174B18EB0B0840F1000003
:101FA00018EB0E0B58EB000840F100008F1A4FF0B1
:101FB00000013CBFC943661B14BFB5EB040C0021F4
:101FC0003CBFC943F61B4FEA17444EEA8E0E27EA80
:101FD00004454FEA1C4704FB07622CEA074C05FB4B
:101FE00007F70CFB05F604FB0CFC16EB074642EB6F
:101FF000174216EB0C4642EB1C421BEB060658EB55
:102000000202414146EA9E0601D5BDE80189B619A2
:10201000524141EB0101A3F10103BDE801894FEAFF
:1020200014454FEA114724EA054621EA074C05FB0F
:1020300007F406FB07F70CFB06F105FB0CFC11EBA4
:10204000074144EB17444FEA124711EB0C4144EBB4
:102050001C4422EA074C05FB07F206FB07F70CFBC2
:1020600006F605FB0CFC16EB074642EB174216EB97
:102070000C4642EB1C456A1854F1000148BF7047FA
:10208000B619524141EB0101A3F10103704795F0EC
:10209000000F37D04FEA11424FEA144721EA0246B7
:1020A00024EA074C02FB07F106FB07F70CFB06F4DA
:1020B00002FB0CFC14EB074441EB17414FEA1547B8
:1020C00014EB0C4441EB1C4125EA074C02FB07F5DD
:1020D00006FB07F70CFB06F602FB0CFC16EB0746AB
:1020E00045EB174516EB0C4645EB1C42121951F116
:1020F000000148BF7047B619524141EB0101A3F1FD
:10210000010370474FEA14454FEA114724EA054698
:1021100021EA074C05FB07F106FB07F70CFB06F26B
:102120004FF0000605FB0CFC12EB074241EB174198
:1021300012EB0C4251EB1C4148BF7047921841EB27
:102140000101A3F1010370477CB50121202000F0BB
:102150003DFC01208DF8040000208DF806000321CD
:102160008DF805100A4D4FF480748DF80700009427
:102170006946284600F0C6F82146284600F025F9B1
:10218000642005F051FA2146284600F01CF97CBD78
:1021900000140240FEE7000070B5084C084D2146CF
:1021A000284600F027F8002807D02146284600F0EE
:1021B0000BF804490120C1F8980270BD0080001896
:1021C0005864024000004342074A904201D2074847
:1021D00001E005481038064A8B0001EA020101D5EA
:1021E000C160704781607047106402400060024027
:1021F0007D0F7D0F30B5104A0024904201D20F4B65
:1022000001E00D4B103B0E4A114205D01E2202EA9E
:10221000D12502682A4002E0406900F0800288006F
:1022200001D5586800E01868064B1840084201D0F4
:1022300002B10124204630BD10640240006002401B
:102240003C0F3C0F7D0F7D0F7047000010B54FF421
:102250008074204600F014F8002807D004490120BB
:1022600048602046BDE8104000F004B810BD0000F2
:102270001C0000200149086070470000143C014028
:10228000034A0146002012680A4200D0012070472C
:10229000143C014030B51A498379026853B30B6886
:1022A00093430B600A1D13680468A343136002790B
:1022B0000A441368046823431360114A0832136800
:1022C0000468A3431360131D1C680568AC431C60BD
:1022D0004479102C05D021440A68006802430A6042
:1022E00030BD11680468214311601968006801431A
:1022F000196030BD0079084401689143016030BD28
:10230000003C0140F0B50023012403270D6804FAC6
:1023100003F21540954242D1D0F800C05E0007FAA2
:1023200006F52CEA050CC0F800C091F804C0D0F8FE
:1023300000E00CFA06FC4CEA0E0CC0F800C091F864
:1023400004C0BCF1010F02D0BCF1020F1FD1D0F8C4
:1023500008C02CEA050CC0F808C091F805C0D0F8F8
:1023600008E00CFA06FC4CEA0E0CC0F808C0D0F8E5
:1023700004C02CEA020CC0F804C0426891F806C000
:102380000CFA03FC1FFA8CFC42EA0C024260C268A1
:10239000AA43C260CA79C568B2402A43C2605B1CC6
:1023A000102BB3D3F0BD4B07DB0E9A40C90810B514
:1023B00000EB8100016A0F249C40A1430162016A85
:1023C0001143016210BD4183704701837047FEE7EE
:1023D00070B50D4C0025C4F8A0520C48016821F4DA
:1023E00040210160016841F480210160C4F8A452D9
:1023F000022004F5287405F023F901202060022052
:1024000005F01EF9256070BD0080404200040240C6
:102410001CB50121022000F0D9FA4FF440700124CC
:1024200000908DF8044000208DF8060003208DF800
:1024300005008DF8074069460448FFF763FF04482C
:10244000C0F8A042C0F8A4421CBD00000004024035
:102450000080404270B50D4C0025C4F8A0520C48D5
:10246000016821F440210160016841F4802101608C
:102470000126C4F8A462022004F5287405F0E0F8EF
:102480002660022005F0DCF8256070BD0080404227
:10249000000402402DE9F0478146164800240168F7
:1024A00021F44021016001680160134E2546274652
:1024B0004FF00108C6F8A072022005F0C1F8C6F876
:1024C000A0826006040ED6F8240208B1641CE4B2AF
:1024D000012005F0B5F86D1CEDB2082DEAD3B9F175
:1024E000000F04D0FFF774FF2046BDE8F087FFF728
:1024F000B1FFF9E700040240008040422DE9F041BD
:1025000006461448016821F440210160016841F445
:1025100080210160104C0027C4F8A0723D464FF0A6
:102520000108F009C4F8A4027006060E022005F0A6
:1025300087F8C4F8A082022005F082F8C4F8A072DF
:10254000022005F07DF86D1CEDB2082DE9D3BDE841
:10255000F0810000000402400080404270B50D4848
:10256000016821F440210160016841F4802101608B
:10257000094C0120C4F8A402C4F8A002042004F508
:10258000287405F05DF800256560042005F058F812
:10259000256070BD00040240008040420E4810B526
:1025A000016821F440210160016841F4802101604B
:1025B0000A4C0020C4F8A002C4F8A402042004F5C8
:1025C000287405F03DF8012020606060BDE81040EF
:1025D000042005F035B800000004024000804042AD
:1025E00070B512480024016821F44021016001689F
:1025F00001600F4D0126C5F8A462304605F020F8B1
:10260000C5F8A062012005F01BF807E0641CE4B2E5
:10261000FA2C03D9FFF7C2FF012070BDD5F82402C0
:102620000028F3D1C5F8A00270BD000000040240EC
:10263000008040427CB514460D4606466B46062295
:102640003B21682000F08CF800280BD1BDF8001069
:1026500049BA3180BDF8021049BA2980BDF804108A
:1026600049BA21807CBD7CB514460D4606466B46B2
:1026700006224321682000F073F800280BD1BDF832
:10268000001049BA3180BDF8021049BA2980BDF85E
:10269000041049BA21807CBD10B5FFF7B9FE802136
:1026A0006B2000F0CCF8642004F0BEFF00216B200A
:1026B00000F0C5F8032000F08EF8002000F086F846
:1026C000322000F0A5F80021382000F0B8F80021F1
:1026D0006A2000F0B4F80021232000F0B0F8802137
:1026E000372000F0ACF8752000F01CF804460146D5
:1026F00009A0FDF7EDFE682C01D0012010BD0121DD
:102700006B2000F09CF800216C2000F098F832203B
:1027100000F07EF8002010BD5245533D25580D0AAB
:102720000000000010B50446FFF718FFD020FFF7A7
:10273000E5FEFFF755FF2046FFF7E0FEFFF750FFED
:10274000FFF70CFFD120FFF7D9FEFFF749FF00206C
:10275000FFF7A0FE0446FFF721FF204610BD000052
:102760002DE9F0411D4614460F460646FFF7F6FEDA
:102770007006000EFFF7C2FEFFF732FF20B1FFF731
:102780000DFF0120BDE8F0813846FFF7B7FEFFF7E7
:1027900027FFFFF7E3FE012000EB4600C0B2FFF782
:1027A000ADFEFFF71DFF09E0012C0DD05FF0010029
:1027B000FFF770FE641E05F8010BE4B2002CF3D1A4
:1027C000FFF7ECFE0020DDE70020F1E7C006010E78
:1027D0001C2000F034B8C006010E1B2000F02FB8FA
:1027E000BC2801D3012110E0622801D302210CE0B2
:1027F0002A2801D3032108E0142801D3042104E08E
:102800000A2801D3052100E006211A2000F017B89C
:1028100010B504464FF47A70844201D9044602E0B0
:10282000042C00D20424B0FBF4F0401EC1B21920E5
:1028300000F005F86008BDE81040FFF7D1BF70B5A3
:102840000C460546FFF78AFED020FFF757FEFFF73C
:10285000C7FE50B92846FFF751FEFFF7C1FE2046DC
:10286000FFF74CFEFFF7BCFE18B1FFF797FE012003
:1028700070BDFFF793FE002070BD2DE9F0411E46AC
:1028800015460F460446FFF769FE6006000EFFF787
:1028900035FEFFF7A5FE60B93846FFF72FFEFFF7BC
:1028A0009FFE00240CE0305DFFF728FEFFF798FE46
:1028B00020B1FFF773FE0120BDE8F081641CE4B293
:1028C000AC42F0D3FFF76AFE0020F5E7FEE7704761
:1028D00030B50F22C47801780123FCB1144C246870
:1028E00001F1E02104F4E064C4F5E064C4F30724DA
:1028F000C4F10405E2404478AC4085781540254396
:102900002A0181F80024007800F01F018B40400963
:10291000800000F1E020C0F8003130BD01F01F0060
:1029200083404809800000F1E020C0F8803130BDCC
:102930000CED00E0024908430249086070470000BE
:102940000000FA050CED00E0014908627047000044
:1029500000000E4210B58AB009AC08AB07AA06A960
:102960008DE81E0005AB04AA12A1FDF755FF06284D
:102970001DD100F0E5FB0498642190FBF1F201FB0E
:1029800012011148C1700599417006998170014684
:10299000002000F0ADFA0C480799001F017008995B
:1029A0004170099981700146002000F0EFFA0AB0E9
:1029B00010BD000025642D25642D25642025643A72
:1029C00025643A256400000054000020044A0029D0
:1029D000116801D0014300E081431160704700009D
:1029E00030380240044A0029116801D0014300E058
:1029F000814311607047000040380240044A0029BA
:102A0000116801D0014300E081431160704700006C
:102A10004438024070B5204A1168204C11F00C0176
:102A200004D06610042903D0082903D004601BE0F9
:102A3000066019E01849091F0B68C3F380550B683D
:102A400003F03F0315B1B6FBF3F301E0B4FBF3F37E
:102A50000C680968C4F388146343C1F30141491C3D
:102A60004900B3FBF1F1016011680F2303EA111172
:102A70000B4B5C5C0168E14041601468072505EA86
:102A800094241C5D21FA04F48460126805EA523231
:102A90009A5CD140C16070BD083802400024F40047
:102AA0000000002002460020510901290BD0022914
:102AB0000CD00849096802F01F02012393400B4221
:102AC00000D00120704703497439F3E70149091F19
:102AD000F0E7000074380240054900220A700A70CD
:102AE000012802D0042801D1052008707047000099
:102AF0007038024001490860704700003C0E4742B0
:102B0000C0F30121032907D1074A116821F4F81302
:102B10000649014019431160034968310A68C0F34E
:102B20000B0002430A60704708380240FFFCFF0FA9
:102B300038B50022124B0092CA221A6053221A6042
:102B40000F4A1C3A0029116802D00143116012E0BB
:102B5000814311600A4A183A95131168009C01EAF2
:102B60001021641C0094AC4201D00029F5D01168FA
:102B700011EA102000D00120FF21196038BD0000AB
:102B800024280040F0B50E4607464FF4807587B004
:102B900000212846FFF7CCFF0024304664F31F6075
:102BA00067F3070066F30F2064F31740CDE90004D4
:102BB00009208DF80C0002946A462946204600F050
:102BC00045F9680204908DF8144008208DF815002E
:102BD00001268DF8166004A8FFF75CFB29208DF80C
:102BE00018008DF819608DF81A408DF81B6006A842
:102BF000FFF76EFE0121080300F0E0F801212846EE
:102C0000FFF796FF02A0FDF763FC07B0F0BD0000E0
:102C1000636C6F636B206861766520736574200D4B
:102C20000A00000010B54FF48054204600F084F8EC
:102C300000280CD0FFF788FA05A0FDF749FC2046D4
:102C400000F022F86001BDE81040FFF713BB10BD93
:102C5000CAB1BCE4B5BDC1CB0D0A0000010901EB4E
:102C6000810100F00F0000EB4100C0B2704700216D
:102C700003E0491C0A38C9B2C0B20A28F9D20907D0
:102C800040EA116070470000C0F30F1040F0800070
:102C9000C1430348026802F080021143016070479B
:102CA0000C28004008B5002000900C480168490637
:102CB00012D44FF0FF31016083130168009A01F0D4
:102CC0004001521C00929A4201D00029F5D00068C0
:102CD000400601D4002008BD012008BD0C2800409A
:102CE0000248016821F08001016070470C28004013
:102CF00010B50C460E4909680E4A11400A0CE270E4
:102D0000C1F30423637001F03F03A370C1F34231A8
:102D1000217000280BD11046FFF7A0FFE07060780B
:102D2000FFF79CFF6070A078FFF798FFA07010BDC0
:102D3000042800403FFFFF000B4A0021126802F008
:102D40000403094A383A126803EAD03302401A43AE
:102D5000064B1B6803EA101003D00004000C00D0DF
:102D60000121084670470000402800400C28004020
:102D700010B50C460F4909680F4A1140C1F30542CE
:102D80002270C1F30623637001F07F03A370402318
:102D900003EA1141E17000280BD11046FFF75EFFF6
:102DA00020706078FFF75AFF6070A078FFF756FF39
:102DB000A07010BD002800407F7F7F0030B50E4D11
:102DC000CA222A6053222A600B4B0B4A1C3B1C323E
:102DD000002920F00404196800F0040004D0214305
:102DE00019601168014303E0A14319601168814330
:102DF0001160FF20286030BD2428004070B5124DBE
:102E000004460026CA20286053202860FFF74AFFA6
:102E1000A8B10D481C38016821F04001016001682B
:102E20002268114301600848A168143801600168F4
:102E3000A28841EA02410160FFF752FF0126FF200C
:102E40002860304670BD00002428004070B514464C
:102E50000D46264A0021002810684FEA406005D040
:102E600000281CDA2078FFF7F9FE19E0002800DBC3
:102E7000E1702078FFF7FBFE06046078FFF7F7FEAD
:102E800046EA0026A078FFF7F2FE0643E07846EA1D
:102E90000046207BFFF7EBFE46EA006010E0E170A1
:102EA000207BFFF7DBFEA0782178E27840EA014042
:102EB0006178090241EA02410843217B40EA01604E
:102EC000A1680A4A084361680843CA211C3211609C
:102ED00053211160B5F5807F04D0111F0860FF20D9
:102EE000106070BD01491431F8E700000828004067
:102EF00070B50C46010060784FF000062AD0FFF74D
:102F0000ADFEA078FFF7AAFEA078E17840EA01457F
:102F100060782178000240EA41300543194CCA200C
:102F2000206053202060FFF7BDFE78B116480540B1
:102F3000144820380560FFF7D3FE12481C3800689B
:102F4000800602D400F096F800B10126FF20206030
:102F5000304670BDC10603D520F010000A30607005
:102F6000E078FFF784FE05046078FFF780FE45EA0D
:102F70000025A078FFF77BFE0543207845EA403521
:102F8000CCE70000242800403FFFFF002DE9F0417E
:102F9000244F0C4602004FF0000620783A68314674
:102FA0004FEA426204D0002A15DAFFF757FE13E019
:102FB000002A00DBE170FFF75AFE05046078FFF796
:102FC00056FE45EA0025A078FFF751FE0543E0785C
:102FD00045EA00450AE0E170A078217840EA014521
:102FE0006078E178000240EA014005430D4CCA20B8
:102FF0001C34206053202060FFF754FE68B10A485B
:103000000540084808380560FFF76AFE3868800602
:1030100002D400F02FF800B10126FF2020603046D6
:10302000BDE8F081082800407F7F7F000549CA2263
:103030000A6053220A60034A103A1060FF200860B9
:10304000704700002428004010B54FF4804420460B
:10305000FFF772FE00280AD00549012008622046C9
:10306000FFF712FE2002BDE81040FFF703B910BDC4
:10307000A400002018B5002010490090CA20086064
:10308000532008600D481838026822F0A002026040
:103090004FF400340268009B02F020025B1C009396
:1030A000A34201D0002AF5D00068800601D5012096
:1030B00000E00020FF220A6018BD00002428004024
:1030C000084ACA2111605321116006491C390B6856
:1030D00023F007030B600B6803430B60FF201060B5
:1030E000704700002428004018B50021134A0091C1
:1030F000CA2111605321116010491C390028086849
:1031000003D040F48060086014E020F48060086020
:103110000A48183884130168009B01F004015B1C05
:103120000093A34201D00029F5D00068400701D4E4
:10313000002000E00120FF21116018BD242800407C
:1031400070B5012186B00807FFF74CFC0120FFF79E
:10315000FBFB0120FFF7C0FC4120FFF7A3FC002888
:10316000FAD04FF48070FFF7CBFC0120FFF7C2FCD0
:10317000FFF780FF7F200390FF2000250490029539
:1031800002A8FFF73BFE03208DF8140001248DF800
:1031900015408DF8174005A8FFF79AFBA6053046A5
:1031A000FFF768F88DF8045008208DF805000096A8
:1031B0008DF806406846FFF76DF80020FFF794FF92
:1031C0000420FFF77DFF0020FFF730FF01218C0373
:1031D0002046FFF7F3FD2046FFF756FD0120FFF7DD
:1031E00083FF06B070BD0029018802D041F0400184
:1031F00001E021F040010180704702460020128961
:103200000A4200D001207047808970478181704751
:1032100030B502884C8802F441530A88CD88224395
:103220008C882C4322430C8922434C8922438C896D
:103230002243CC8922431A430280828B22F400620B
:103240008283098A018230BD10B58A0721F0030408
:103250000849130F21440F22D1F808489A4094439B
:10326000C1F80848D1F8082898400243C1F8082856
:1032700010BD0000003001400CB50020274901902E
:1032800000900A6842F480320A604FF4A0430A6852
:1032900002F400320092019A521C0192009A12B973
:1032A000019A9A42F3D10A68920334D50120009022
:1032B0001A484030026842F08052026018480268A2
:1032C00042F4404202601548083002680260026819
:1032D00042F400420260026842F4A0520260031FFE
:1032E000104A1A600A6842F080720A600A68920105
:1032F000FCD50D4A40F205711160016821F003010F
:103300000160016841F0020101600168C1F38101BF
:103310000229FAD10CBD00900CBD0000003802401B
:103320000070004008544007003C024010B5502097
:1033300080F31188BFF34F8FBFF36F8F2AF03AFBF2
:1033400018B104494FF080500860002080F31188C4
:1033500010BD000004ED00E0124810B5016841F412
:10336000700101601048016841F0010101600E4ADE
:1033700000210832116002680C4B1A400260031DE4
:103380000B4A1A60026822F48022026006480C3060
:103390000160FFF771FF03494FF00060803908605A
:1033A00010BD000088ED00E000380240FFFFF6FE8F
:1033B0001030002410B5074C0121204600F00FF812
:1033C000012805D12046BDE81040012100F004B8D5
:1033D00010BD000000040040C9430182704702464E
:1033E0000020138A92890B4202EA010202D0002ACD
:1033F00000D0012070470000F0B50646012187B0DB
:103400000846FFF7E3FA01211020FFF7F7FA224FF1
:10341000072209213846FEF7C6FF07220A2138464F
:10342000FEF7C1FF02208DF8140003208DF815006F
:10343000002440028DF81640012504908DF81750A5
:1034400004A93846FEF75EFF0096ADF808400C2050
:10345000124EADF80440ADF80A00ADF80640ADF8E4
:103460000C406946304600F0F3F925208DF818002D
:103470008DF819408DF81B5006A8FFF729FA012294
:1034800040F22551304600F0CBF90121304600F0E2
:1034900097F907B0F0BD00000000024000100140A5
:1034A00070B50446074D09E02846641C00F02AFA6E
:1034B0008021284600F08EF90028F9D021780029D3
:1034C000F2D170BD001001402DE9F041804601218C
:1034D00088B00846FFF77AFA01214804FFF782FA1C
:1034E000224F072202213846FEF75DFF0722032103
:1034F0003846FEF758FF02208DF8140003208DF89F
:10350000150000248DF8164001250C268DF8175063
:1035100004A938460496FEF7F5FEADF80840ADF86C
:103520000A60134EADF80440CDF80080ADF80640B7
:10353000ADF80C406946304600F08AF926208DF837
:1035400018008DF819408DF81B5006A8FFF7C0F938
:10355000012240F22551304600F062F90121304647
:1035600000F02EF908B0BDE8F08100000000024034
:103570000044004070B50446074D09E02846641C2D
:1035800000F0C0F98021284600F024F90028F9D085
:1035900021780029F2D170BD00440040F0B5064604
:1035A00087B001210220FFF711FA01218804FFF7FB
:1035B00019FA224F07220A213846FEF7F4FE0722A5
:1035C0000B213846FEF7EFFE02208DF81400032091
:1035D0008DF81500002480028DF816400125049016
:1035E0008DF8175004A93846FEF78CFE0096ADF80A
:1035F00008400C20124EADF80440ADF80A00ADF8BA
:103600000640ADF80C406946304600F021F927200D
:103610008DF818008DF819408DF81B5006A8FFF79B
:1036200057F9012240F22551304600F0F9F8012106
:10363000304600F0C5F807B0F0BD000000040240BD
:103640000048004070B50446074D09E02846641C58
:1036500000F058F98021284600F0BCF80028F9D085
:1036600021780029F2D170BD0048004040F2255178
:10367000014800F0B6B80000001001402DE9FC41FF
:103680002C4C40F22551204600F0ABF801284FD1D8
:10369000294D2878B0F5FA7F4AD2204600F02EF95D
:1036A0002978264E7218491C2970107028783044E9
:1036B00010F8010C3B2832D121A13046FDF787F9E3
:1036C000040029D0A21B904631466846FDF783FAD4
:1036D0001C4800270DF808706946006817F022FAA8
:1036E000601CFDF7D6F9421E611C01A8FDF773FAB4
:1036F000601CFDF7CEF901A9084400F8017C1248CE
:10370000006817F00FFA3046FDF7C3F9014630465E
:10371000FDF718FA2F7002E00CA0FCF7D9FE28780C
:10372000304410F8011CBDE8FC410C4800F0EAB838
:10373000BDE8FC81004400403C0000202806002039
:103740002E000000AC030020B4030020CEB4D5D27C
:10375000B5BDD0A1CAFDB5E30A00000000100140CC
:1037600070B5144E40F22551304600F03AF8012869
:103770001ED1114CA088114DB0F5FA7F07D230460A
:1037800000F0BCF8A1886A18491CA180107060780C
:1037900001280DD1A088284410F8010C0A2807D16F
:1037A000A088284410F8020C0D2801D10120A07037
:1037B00070BD0000004800403C0000201C080020B4
:1037C0000029818902D041F4005101E021F4005127
:1037D000818170470246002012880A4200D00120F1
:1037E000704730B501F01F0201240025C1F34213D8
:1037F00004FA02F2012B0FD0022B0FD0838A4FEA7A
:1038000011210088134204FA01F400EA040001D0F7
:1038100000B10125284630BD8389F0E7038AEEE731
:1038200010B5C1F3421301F01F040121A140012B87
:1038300007D0022B07D01430002A026805D00A43B3
:1038400004E00C30F8E71030F6E78A43026010BD60
:103850007FB50446008A0D4620F44051E8880843AD
:103860002082A08941F20C618843A9882A891143EA
:103870006A8902431143A181A08A20F44071A8897A
:103880000843A0826846FFF7C5F81A48844202D070
:103890001948844201D1039800E00298A1890904E3
:1038A00000EBC00101EB0010296801D5490000E0E0
:1038B0008900B0FBF1F26420B2FBF0F109010B09C1
:1038C0006FF018056B4302EB8302A3891D044FF0D0
:1038D000320306D503EBC202B2FBF0F000F00700A2
:1038E00005E003EB0212B2FBF0F000F00F0008431A
:1038F00020817FBD00100140001401408088C0F38A
:1039000008007047C1F3080181807047FEE703B4E7
:1039100001984100009850EAC12018BF04204A0DC8
:1039200018BF40F0010040F2FF72B2EB515F08BFD8
:1039300040F00200012808BF052002B0704770B5B2
:10394000044600256FF02F0608E02068411C216026
:10395000007805EB850106EB4101451820680078E9
:1039600000F004F80028F0D1284670BD303809284E
:1039700001D8012070470020704730380A2801D252
:10398000012070470020704710B54421074800F01F
:103990008DFE00221E2106481DF02CFE054CA06065
:1039A00001F0F6FF0020207010BD000028C40020A8
:1039B000455A0008880200202DE9F0470E4681464E
:1039C00017461146304600F01CF94FF0FF3A002828
:1039D0007DD000223946304600F0BFF800284FF075
:1039E000000075D1B6F90480B6F900305246A8EB54
:1039F0000301491C0AFA81F10FFA81FAB6F906C0EF
:103A0000B6F90210ACEB010C0CF1010C02FA8CF2CD
:103A1000B7F802C012B2ACEB010C0FFA8CFCBCF18F
:103A2000000F0EDD63F30F0468F30F0501EB0C00CC
:103A300061F31F4460F31F45C9F800400120C9F835
:103A40000450B7F906107388CB1AD21A12B2002AA2
:103A500013DDB6F9063099420FDA338863F30F04A9
:103A6000B38861F31F4463F30F05114461F31F45ED
:103A700009EBC001401C0C604D60B7F90220B6F99B
:103A800002108A4200DD1146B7F90630B6F9062069
:103A9000934200DA1A463B88B6F900C0521AA3EBEB
:103AA0000C031BB212B2002B10DD002A0EDD6344A2
:103AB00063F30F058B1863F31F456CF30F0409EBD9
:103AC000C00361F31F441C605D60401C01E01AE00C
:103AD00017E0B7F9043036889F1BAAEB070636B209
:103AE000002E0EDD63F30F0461F31F44334463F3D0
:103AF0000F05114461F31F4509EBC001401C0C6028
:103B00004D60BDE8F0875046FBE770B5B1F9003075
:103B1000B2F90040A34200DC23460380B1F9025011
:103B2000B2F90240A54200DD2C464480B1F90460A0
:103B3000B2F90450AE4200DA35468580B1F906107C
:103B4000B2F90620914200DB1146C1800120AB4250
:103B500001DC8C4200DD002070BDF8B50D46044646
:103B6000B0F90000B1F900101646884247DBB4F9FD
:103B70000210B5F90220914241DBB4F90410B5F905
:103B8000042091423BDCB4F90610B5F906209142BD
:103B900035DC96B3ADF800006088ADF8020032461F
:103BA0006946284600F099F8002827D0A088ADF88B
:103BB00000006088ADF8020032466946284600F0F1
:103BC0008CF800281AD02088ADF80000E088ADF805
:103BD000020032466946284600F07FF800280DD0E2
:103BE000A088ADF80000E088ADF8020032466946D2
:103BF000284600F072F8002800D00120F8BD00200F
:103C0000F8BDB0F90020B1F904309A4213DCB0F9E4
:103C10000420B1F900309A420DDBB0F90220B1F96D
:103C200006309A4207DCB0F90600B1F9021088426A
:103C300001DB0120704700207047F8B50D460446AF
:103C4000B0F90400B1F900101646884243DBB4F91C
:103C50000600B5F9021088423DDBB4F90000B5F961
:103C60000410884237DCB4F90210B5F906209142FD
:103C700031DC76B3ADF800006088ADF80200324662
:103C80006946284600F029F818BBA088ADF8000066
:103C90006088ADF8020032466946284600F01DF8FB
:103CA000B8B92088ADF80000E088ADF802003246CF
:103CB0006946284600F011F858B9A088ADF8000010
:103CC000E088ADF8020032466946284600F005F863
:103CD00008B10020F8BD0120F8BD2DE9FC411446D3
:103CE0000E46B1F90020B0F9001005468A423ADBD1
:103CF000B5F90400824236DCB6F90270B5F902204B
:103D0000974230DBB5F906309F422CDC002C75DD84
:103D1000401A9A1A401C521C00B212B200EBD0702A
:103D200002EBD27240105210904200DB10468442E7
:103D300000DD0446ADF80010288800222044ADF8CC
:103D400004006888ADF80200688831462044ADF868
:103D500006006846FFF7C1FF40B1BDF804002044EB
:103D6000ADF804003FE00020BDE8FC81E8880022B7
:103D7000001BADF80200E888ADF806003146684641
:103D8000FFF7ABFF28B1BDF804002044ADF80400F4
:103D900011E0A8880022001BADF80000A888ADF84B
:103DA000040031466846FFF798FF50B1BDF80000A7
:103DB000001BADF80000BDF80200001BADF80200CA
:103DC00016E06888ADF80200688800222044ADF84B
:103DD000060031466846FFF780FF70B1BDF800006D
:103DE000001BADF80000BDF806002044ADF8060049
:103DF000314668461BF020FAB6E7FFE70120B3E73B
:103E000010B5B1F90040B2F900309C4200DA234607
:103E10000380B1F90240B2F902309C4200DA234635
:103E20004380B1F90440B2F904309C4200DD2346DE
:103E30008380B1F90610B2F90620914200DC1146E8
:103E4000C18010BDF8B507461DF0C0FB0025374CFA
:103E50000646009537B1F868606038461DF098FC5A
:103E6000606802E010F08AFF606000691BF0E0F813
:103E70006068406908B11BF0DBF86068C0691BF03E
:103E8000D7F86068006A1BF0D3F86068016991B1E7
:103E90001BF080FA21F00CF820F0D6FD6068B0F835
:103EA0005011D9B30068017CC9071DD0C0684068B3
:103EB000D0B1002713E0A0F85051F8BDC11991F816
:103EC000301151B900F5AC7000F047FC616801EBAE
:103ED000C7010A6B0260496B41607F1CBFB260681A
:103EE000B0F85011B942E9D860684FF480713030B1
:103EF00017F06CF86068202100F5987017F066F8EC
:103F00006068A0F8505130461DF05AFB0090606880
:103F10000068436A13B122680099984716F0D4FEEE
:103F200000F032F8BDE8F84000F002B8640100206B
:103F300070B50A4D002400BFC4EBC40655F8260036
:103F400008B116F035FF05EB86001C2117F03EF88E
:103F5000641CE4B2042CEFD370BD000004C5002043
:103F6000084949680AE04A68824202D00A688242E7
:103F700003D10A7E42F001020A7649690029F2D192
:103F800070470000380100207047000004210148FC
:103F900000F08CBB1CC400202021014800F086BB2F
:103FA00034C400202DE9FF410446DDE90A671D0005
:103FB0004FF0000002D1B6F5807F2BD00390019026
:103FC0000290ADF80C100090ADF80410ADF80A2086
:103FD000ADF80E203B463246294668461BF08CF869
:103FE0003B463246294601A81BF086F83B4632463E
:103FF000294602A81BF080F83B463246294603A812
:104000001BF07AF8BDF90000BDF90430984209DAD6
:10401000054608E02080491E6080A180521EE28093
:10402000BDE8FF811D46BDF90820BDF90C108A428C
:1040300001DA164600E00E46B54203DA984206DB86
:10404000184604E08A4201DA104600E00846801E65
:104050002080BDF90030BDF90420934201DD1D46EA
:1040600000E01546BDF90800BDF90C10884201DDDD
:10407000064600E00E46B54205DD934201DD1946D5
:1040800004E0114602E0884200DD0146891CA1805F
:10409000BDF90230BDF90620934201DA1D4600E069
:1040A0001546BDF90A00BDF90E10884201DA064630
:1040B00000E00E46B54205DA934201DA194604E003
:1040C000114602E0884200DA0146891E6180BDF98E
:1040D0000230BDF90620934201DD1D4600E0154681
:1040E000BDF90A00BDF90E10884201DD064600E068
:1040F0000E46B54205DD934201DD194604E0114646
:1041000002E0884200DD0146891CE18088E700006A
:104110002DE9F04115460E460746114C1DF056FAA2
:1041200080462B4632463946204615F033F820B1FA
:104130000020A062E06950B110E02C21204616F06A
:1041400045FF4FF00040A0620020BDE8F0814046EE
:104150001DF036FAE06108B90120E0612046F4E77D
:1041600058C4002010B51421074800F09FFA14F03D
:10417000D7FF40B1054901600549416005498160AB
:104180000549C16010BDFEE740C40020F58A010862
:10419000718E010841900108C18A010870B50D4671
:1041A00004461021284616F011FF206800780128E7
:1041B00004D0022807D0042807D008E0A08A28806D
:1041C000E08A688003E0E06800E00A206860206818
:1041D0004268002A03D02946BDE87040104770BDF0
:1041E0002DE9FE430446808A10B9E08A002874D085
:1041F000D4F82C805FEA080010D120460AF06FF94D
:104200005FEA000869D020460CF03AFF002209213D
:10421000404613F0B9FE607880075ED44FF4807991
:1042200000274E4645460021284618F0D7FF38445F
:1042300007B20021284618F0EFFFC11700EB11600C
:10424000001210FB06F006B2284618F07BF80500B5
:10425000E9D10FB94E450CD0784201B24FF480300D
:1042600090FBF6F002B26B4604F1140000951AF0D0
:1042700043FFADF80450ADF8085094F8400000F04A
:104280000F000328404616D018F08EF90646404627
:1042900018F064F803460C200090B4F9161032466A
:1042A000404609F0B9FCADF80800404618F0A8F8FF
:1042B000C10713D018E018F00BF90646404618F075
:1042C000A7F8024603200090B4F914103346404684
:1042D00009F0A2FCADF80400E7E736E0BDF90410F0
:1042E000002901DDADF80450810705D4BDF90410A3
:1042F000002901DAADF80450410705D4BDF90810D2
:10430000002901DDADF80850000705D4BDF908000B
:10431000002801DAADF8085002AA01A9204621F0D0
:10432000A7F9BDF90820BDF90410404600F08AFA4B
:104330006078800709D4208BBDF8041008442083DE
:10434000608BBDF8081008446083BDE8FE832DE94A
:10435000FC5F0446C06A5FEA000B71D094F840002D
:1043600000076DD015F026FA019000684021457EC7
:10437000584619F061F84FF0000818B9A4F81E80EB
:10438000A4F81C80584618F001F98246584618F0E7
:1043900004F9064694F840004FF0640900F00F005D
:1043A0000C2802D003284CD09AE0A4F81C8056B107
:1043B000B4F91E50002715F0FDF900684946407E0B
:1043C000C0F1640022E0E08BC5F1640110FB01F153
:1043D00091FBF9F0E083584617F0C0FF05465846B8
:1043E00018F0E2F802460C200090B4F91E102B469B
:1043F000584609F011FCE083024600231EE07A19BA
:1044000017B210FB05F292FBF1F215B2002DF6D1B6
:10441000ADF80070A4F81E806A460021204621F005
:1044200027F941F6FF72BDF90030514258460AF0B3
:10443000EDF9BDF800100123084402B200214CE060
:104440009AE0A4F81E80BAF1000F0AD0B4F91C500B
:10445000002715F0AFF900684946407EC0F16400BE
:1044600022E0A08BC5F1640110FB01F191FBF9F092
:10447000A083584617F0CCFF0546584618F028F898
:10448000034603200090B4F91C102A46584609F050
:10449000C3FBA083014600231EE07A1917B210FB6C
:1044A00005F292FBF1F215B2002DF6D1ADF80070D5
:1044B000A4F81C8000226946204621F0D9F841F674
:1044C000FF72BDF90030514258460AF017F9BDF8A5
:1044D00000100123084401B2002258461AF016F9D0
:1044E000A08B002848D1E08B002845D1C6B958469A
:1044F00018F05AF80546584617F030FF002D06DC34
:1045000000280DDD002D02DA01232A4604E00028F0
:1045100006DA0123404202B2002158461AF0F6F8AA
:10452000BAF1000F19D1584617F072FF05465846E8
:1045300017F0CEFF002D07DC00280EDD002D03DA7A
:1045400001230022294605E0002806DA0123002283
:10455000404201B258461AF0D9F80A215846019A49
:1045600013F012FD6078800706D414F8400F20F095
:104570000F00207044F8148CBDE8FC9F7FB50E46F8
:10458000040003D110F0FAFB04002CD010F06AFCF8
:10459000002828D094F82800400724D4002506B32A
:1045A000ADF80050ADF80250204610F0FFFB401E61
:1045B000ADF80400204610F03FFC401EADF80600A8
:1045C0006A46314602A8FFF7A0FA00280BD02068FF
:1045D000017C890708D5DDE90001C4E90C0101204F
:1045E00029E0A4F850517FBD82690AB102A9904721
:1045F00000260AE004EBC601002202A83031FFF7D2
:10460000ACFA0028EFD1761CB6B2B4F85001B04233
:10461000F0D880B2202804D204EBC00002A93030C8
:1046200004E0A4F8505104F1300069460EF055FC46
:10463000B4F85001401CA4F8500160680028D2D0A2
:104640001DF0B2F87FBD70B5054600F012F80446C3
:104650000CE02146284600F01EF806462146284672
:1046600000F0A2F8204616F0A3FB3446002CF0D14F
:1046700070BD002800D04068704700B50346002296
:10468000FFF7F7FF03E01846521C00F004F80100A2
:10469000F9D1104600BD0068091D405870470068F8
:1046A00040587047002800D0806870470022426060
:1046B000C91C21F0030182600160704770B5044697
:1046C0000068083016F0E8FA050013D00146002211
:1046D00020461FF03FFA2946204662681FF034FA50
:1046E000616819B12A4620461FF034FA6560A06857
:1046F00000B9A560284670BD2DE9F0410C460600C2
:104700000AD04CB1FFF7B5FFA04208D13046FFF701
:10471000D5FF051E01D01EE00020BDE8F081306805
:10472000083016F0B9FA051EF7D030682A46075946
:10473000304639461FF008FA3A46294630461FF0FF
:1047400009FA2A46214630461FF004FA2246294635
:1047500030461FF0F9F92846DFE770B504460068D7
:10476000083016F099FA050013D0014600222046C1
:104770001FF0EAF929462046A2681FF0EBF9A1686C
:1047800019B12A4620461FF0DFF9A560606800B91C
:104790006560284670BD28B1416809B9806808B1D4
:1047A000002070470120704770B504000DD0FFF75E
:1047B00060FF00228842204608D1FFF76CFF60604E
:1047C000011E01D000221EE0A26070BDFFF76AFF4B
:1047D0008842206808440AD10168A16029B12046B6
:1047E000BDE8704000221FF0AFB9626070BD05687F
:1047F0002046FFF750FF06460246294620461FF096
:10480000A3F92A4631462046BDE870401FF0A2B900
:1048100010B50446006882680AB1214690472068B6
:104820000068002801D02060F5E710BD80680028EE
:1048300001D0B0F9160070478068002801D0807E52
:104840008009704770B5164605460C4651EA0600C9
:104850001AD0284616F080FEA86801233246018A45
:1048600021440182A868418A314441822146284678
:1048700019F092F900220B21284613F085FB01283C
:1048800003D1284619F0C6F8012070BD77B581B074
:104890000E46050017D0622218F0ECFB040012D07F
:1048A000206880B128463146632218F0E3FB10F0FF
:1048B000FF0208D023682046039998470090BDF86E
:1048C0000000ADF80C00039804B070BD2DE9F0476E
:1048D000074692B0408C1A9E40F0080078849046BB
:1048E0003A8499468A463289384618F0C3FB054611
:1048F000A7F8209032895146384618F0BBFB044691
:10490000788CA54220F00800788403D12904B1EB0B
:10491000044F68D0A7F8208032895146384618F0F5
:10492000A9FB05468046A7F82090514638460BF073
:1049300023FA318900682A461CF000F830890B28D8
:1049400023D147F6FF794D4501D04C451DD138465E
:1049500018F045FD00EBD0704510384617F0B1FC5B
:1049600000EBD0704010C84506D1691C431C994229
:1049700000DA00E0194688464C4506D1691C421C05
:10498000914201DA6C1C00E014461948FFF796FECC
:1049900005002BD02F60C5E903843089A8806846C4
:1049A000C5F808A00DF006FD1248FF21CDE9005022
:1049B000114802901148039000200890CDE90901A8
:1049C00030880B9070889DF8421040420C90F0683F
:1049D0000790002060F300018DF8421030690690C6
:1049E00068460DF061FD12B0BDE8F087FEE70000FB
:1049F0004CC40020A577020891790208ED780208DE
:104A000014210148FFF752BE4CC400202DE9F84F95
:104A100000259046894606462C460427E5E000BF5F
:104A2000F16807EBC400085882017AD480B230EAFA
:104A3000090211D05FF0000230EA08000ED0002019
:104A400082426ED051F834A06A46102150461BF0C5
:104A5000F9FC002871D103E00122EDE70120EFE726
:104A60006A46112150461BF0EDFC002865D16A46CC
:104A7000122150461BF0E6FC00285ED16A46132145
:104A800050461BF0DFFC002857D16A4615215046DE
:104A90001BF0D8FC002850D16A46142150461BF068
:104AA000D1FCE8BB6A460A2150461BF0CBFCB8BBE0
:104AB0006A466B2150461BF0C5FC88BB6A466C21D8
:104AC00050461BF0BFFC58BB6A46012150461BF004
:104AD000B9FC28BB6A46042150461BF0B3FCF8B968
:104AE0006A46022150461BF0ADFCC8B96A46032154
:104AF00050461BF0A7FC98B96A46052150461BF0AA
:104B0000A1FC68B96A46062150461BF09BFC38B9E7
:104B10006A46322150461BF095FC08B96A4601E00E
:104B20000BE061E06E2150461BF08CFC28B96A4610
:104B30006D2150461BF086FC10B10320BDE8F88FB4
:104B40006A46692150461BF07DFCE8BB6A466A2133
:104B500050461BF077FCB8BB6A466E2150461BF0EE
:104B600071FC88BB6A466D2150461BF06BFC58BB3C
:104B70006A46372150461BF065FC28BB6A4638213F
:104B800050461BF05FFCF8B96A46352150461BF0D1
:104B900059FCC8B96A46402150461BF053FC98B9ED
:104BA0006A46452150461BF04DFC68B96A464121D2
:104BB00050461BF047FC38B96A46422150461BF06C
:104BC00041FC08B96A4600E00AE0432150461BF068
:104BD00039FC28B96A46492150461BF033FC08B11C
:104BE000022501E005B90125641C708CC0F3051095
:104BF000A0423FF615AF2846A0E7000001484068F4
:104C000070470000640100207047C0F304100728BB
:104C100000D9072070470000A0F57F41FF3905D07B
:104C2000002804D0712803D208490AE01F207047E9
:104C30000749713880B2096829B1064A5268904222
:104C400001D2085C7047002070470000282A030842
:104C5000B4020020C802002010B518210348FFF755
:104C600025FD03490120087010BD0000F8C3002095
:104C7000D00200202DE9F04190460C46050015D0E9
:104C8000FBF707FF0A4F06462146BA6828469047B9
:104C90000446BA682819414690470146701A03E055
:104CA0006218AA5C2A55641CA042F9D2BDE8F081C2
:104CB000E40200202DE9F041094D90460E466A6855
:104CC0001C46074619469047306020B120686A6844
:104CD000384400219047C8F80000BDE8F08100008A
:104CE000E40200202DE9F04F87B08A46DDE9105834
:104CF0001F4693460446002105B129805CB1207807
:104D0000002809D0BAF1000F05D0002618F0060FD0
:104D100015D0002004E0002007B0BDE8F08F401C53
:104D2000215C0A2904D00D2902D00029F7D100E026
:104D3000401C002DF0D04FF0FF312980ECE75FEAF6
:104D4000887001D541F6FF77894608468DF8141022
:104D5000049127E00498CDF8189068B34FF0000C48
:104D600005AA06ABCDF80CC0CDF80080CDE9013224
:104D700020443B465A4651461CF050FE06997A1A8A
:104D8000314417B20EB288B10499014404912078DD
:104D90000A280BD00D2809D0605C0A280FD00D28F6
:104DA0000DD00846205C08B1002FD3DC049848B130
:104DB00005B12E800498AFE74FF0010CD0E7481CF6
:104DC0000490F3E7064A04A9204652689047002D54
:104DD000F0D001460022504613F0EAF906B2E8E7A7
:104DE000E40200202DE9F0411746884606001ED057
:104DF000002F1CD0FBF74DFE04463846FBF749FE5A
:104E0000050014D00B4A2C44414692683046904726
:104E1000411903E0621BB25C3255641EA142F9D90C
:104E200030442A463946BDE8F04116F091B8BDE855
:104E3000F0810000E402002000230278232902D040
:104E4000012A0DD00FE02AB10021012A04D0022A44
:104E500004D008E0012101E0017004E0017001E0EC
:104E6000202902D00123184670470221F6E72DE9D8
:104E7000F0410E46804602460021334608461DF0AA
:104E80000BF804460027401C15F006FF050008D06B
:104E90002F5533464246611C1CF0FEFF2846BDE8F4
:104EA000F081FEE72DE9F0471E4614460D46824686
:104EB000DDF8209015E000BF4FEA540808FB0657C4
:104EC000394650464A469047002808DD44F3000022
:104ED000C0EB540407EB0605A4F1010401E005DA78
:104EE0004446002CE8D12046BDE8F0873846FBE771
:104EF0002DE9FC5F9B460CAB8A468146DDE91160DB
:104F000093E81210DDE90F575FEA80784FF0300325
:104F10001AD45EB15FEAC07808D000F00C0858EAF5
:104F20000C0803D0761E01E00B55641CBC4204D271
:104F3000202CF9D301E00B55641C5FEAC07803D044
:104F4000B44201D2202CF6D35FEAC06825D55FEACF
:104F500040580AD44CB1BC4201D0B44205D1641EC1
:104F600003D0102D03D1641E04E0102D02D0022DB9
:104F70000AD00EE0850603D4202C1ED2782506E048
:104F8000202C1AD2582502E0202C16D262250D556D
:104F9000641C202C11D20B55641C202C0DD2BCF1AA
:104FA000000F01D02D2306E0430701D52B2302E09B
:104FB000030702D520230B55641CCDE900BAC8466F
:104FC000154681468B46AA46800714D1274607E03E
:104FD0002A46DDE900316D1C2020C446E0477F1CD5
:104FE000B742F5D307E02A466D1C641EDDE90031A7
:104FF0001BF80400C047002CF5D15FEA897006D485
:1050000009E02A46DDE900316D1C2020C047A5EBF0
:105010000A00B042F5D32846BDE8FC9F2DE9F04FC9
:105020008FB099468B46DDE91818DDE91C63DDE990
:105030001A4792468646002209B923F01003580504
:1050400007AD00D5C9B1B1FBF4F004FB1010C0B23C
:105050000A2801D2303009E05FEA836C02D54FF0B4
:10506000410C01E04FF0610C60440A38B1FBF4F1EF
:10507000A854521C09B1202AE5D3CDF80880CDE907
:105080000563CDE90052CDE903474B4652465946E8
:105090007046FFF72DFF0FB0BDE8F08F2DE9FF4FF1
:1050A0008FB01CACDDE9239594E8030820AC94E8AC
:1050B000C004002450EA010201D125F010056A0560
:1050C0000DF11C0802D550EA010217D032463B46CA
:1050D000FBF763F9D2B20A2A01D2303206E0AB06FE
:1050E00001D5412300E061231A440A3A08F804205C
:1050F000641C50EA010201D0202CE7D3CDE90084E2
:10510000CDF808B0CDE90595CDE9036A0FAF97E872
:105110000F00FFF7EDFE13B0BDE8F08F9A4200D20A
:10512000885470477047FEE710B50446806915F053
:105130003FFE0020A06110BD8069006814F0CAB96C
:10514000806989B2006814F06FBA70B50C460546E4
:10515000022A04D04AB1BDE8704016F0C7BB18F06F
:105160006BF9002821462846F5D1BDE8704015F0BE
:10517000D7BF00002DE9F041174C06460025204618
:1051800065620F464268806B29460AE000EB4113D6
:105190005B68B34203D100EB4110BDE8F081491CCC
:1051A00061629142F2D35101203115F025FEA063D6
:1051B00080B161684FF0FF3200EB4110A0624660A1
:1051C000077085600261C0E90525C5616168491CF9
:1051D0006160E2E7FEE70000A80500202DE9F04746
:1051E000284C0646C0690025C4E90C05994690463E
:1051F0000F4690B3E56222E0606B80B9206B0168D6
:1052000021B1428922B1521E428108E0606306E06A
:10521000084618F06DFC0028206B1FD04581206BDC
:105220000168B94205D14268424502D102894A4526
:1052300011D0C06838B12063E06A401CE062B069F8
:10524000E16A8842D8D8606B38B12063C0E9007841
:10525000A0F808904581BDE8F08701E00560D5E73A
:10526000102015F019FD606318B1216B11B1C860F1
:1052700001E0FEE7F0612063C560B069401CB061E9
:10528000206BE3E7A8050020F8B504460F46069812
:1052900021681D46164601B98047002000902B4624
:1052A0003246394620681AF0EBFAF8BD08B51749BE
:1052B000202816D0222814D02A2812D0302810D026
:1052C00036280ED044280CD047280AD04D2808D0C4
:1052D000522806D0552804D001F120031A60086A2C
:1052E00008BD4FF478404FF4FC6300EA122003EA53
:1052F00052131843C2F3C4021043ADF8000080B249
:105300000090BDF800000884E9E70000A80500202F
:105310002DE9FF4F89B005460A98002492460028DF
:1053200000D1FE4D8FE1252804D02246641C53464F
:105330000A990BE2491C4FF0000808460C910178CD
:105340002B2919D004DC202919D0232904D119E0F4
:105350002D290ED0302909D00026C8B2FEF706FB51
:10536000B0B10CA8FEF7EBFA06461FE048F00101C9
:105370000AE048F0020107E048F0040104E048F0C8
:10538000080101E048F01001401C88460C90D6E767
:105390000C9908782A2809D1169840C81690002E32
:1053A00002DA48F002087642491C0C910C984FF042
:1053B000000B01782E2919D1401C0C9048F480680C
:1053C0000078FEF7D3FA20B10CA8FEF7B8FA8346AE
:1053D0000CE00C9A10782A2808D1169802C816906A
:1053E000002900DC0021521C8B460C920C9801789D
:1053F0006C290AD004DC68290FD06A2919D128E069
:10540000742929D07A2914D126E0401C0C90017807
:1054100048F480786C291CD00BE0401C0C9001787B
:1054200048F08008682904D148F04001401C8846B3
:105430000C9002460078692822D015DC62281FD023
:105440000DDC252871D050281AD058287FF46DAF74
:1054500016E048F40071E9E748F48071E6E7632854
:1054600078D06428F2D10BE0732874D004DC6F2864
:1054700006D07028EAD103E0752801D07828E5D15C
:1054800078280DD058280BD070280BD0502809D080
:105490006F2816D0622816D00A2128F0100016E0D6
:1054A000102107E05078102148F48878562804D15C
:1054B000521C0C921078582807D01078502804D02D
:1054C00006E0082109E0022107E048F020008046BC
:1054D0001078692803D0642801D028F00C085FEA0E
:1054E000485001D528F00108107869281ED064289A
:1054F0001CD0562864D05FEA885072D5169804AB49
:10550000C01D002283E806080292CDE9076820F05A
:1055100007005346F0E80212CDE900121690224629
:1055200028460A99FFF7BAFD89E00AE15FEA885048
:1055300024D5169804AFC01D20F00703F3E802023B
:105540001693002387E80A08CDE90768002A03DAE2
:10555000012102E080E0A6E000210023029119462B
:105560001B1A914101DA114603E00021404261EB30
:10557000020153462246CDE90001D1E75FEAC85057
:1055800004D5169804C80FE0524215E05FEA48605F
:1055900003D5169810F8042B06E05FEA0860F0D5F2
:1055A000169830F8042B12B21690CDE9021BCDE903
:1055B0000468D00F002AE7DDCDE9002053461EE045
:1055C0001698AAEB040202C816904868006800907A
:1055D0000A980B6801192846FFF79AFE04442FE049
:1055E000FFE75FEAC8500CD5CDE9021BCDE904689E
:1055F00016980021534604C8CDE900211690224692
:1056000019E05FEA486003D5169810F8042B08E00B
:105610005FEA0860169803D530F8042B92B200E0D8
:1056200004C816900020CDE90020CDE9021BCDE989
:1056300004685346224628460A99FFF7EFFC0446C1
:105640000C98401C0C900C99087800287FF46BAEE5
:1056500054457DD222467DE001275FEA887006D559
:1056600009E02246641C534620200A99A847384680
:105670007F1CB042F5D316992246641C11F8040B26
:10568000169153460A99A8475FEA887006D4D7E76F
:105690002246641C534620200A99A84738467F1C9E
:1056A000B042F5D3CCE7169850F8049B16904B46C1
:1056B000BBF1000001D0014601E04FF0FF31484648
:1056C00000E0401C02780AB1491EFAD2C71A5FEA0C
:1056D000485003D558465F4500D307465FEA8870B7
:1056E00006D512E02246641C534620200A99A8479A
:1056F00038467F1CB042F5D307E000BF224609F1CF
:105700000109641C53460A99A84799F8000040B162
:105710005FEA4851F2D5BBF1010B01E025510008C9
:10572000ECD25FEA887006D48AE72246641C5346AE
:1057300020200A99A84738467F1CB042F5D37FE75E
:1057400006E02246641C534625200A99A84777E7BD
:10575000AAF10102534600200A99A8470DB020463D
:10576000BDE8F08FFEB506460D460024684609F0F8
:10577000E7FB00229FED1B1A6B46012156F82270B1
:1057800055F82200381A00D5404200EE100A03EB0B
:105790008200B8EEC00AD0ED000A20EE010AF5EE54
:1057A000C00AF1EE10FA0DD0C0EE201AB7EE000AD2
:1057B0000D4F31EEC00AB0EEC00A10EE100AB8422A
:1057C00007DC09E010EE100A084F3844084FB842D1
:1057D00002D301FA02F00443521C032ACEDB204616
:1057E000FEBD000000008037295C0F3E666666C182
:1057F0009A99D90010B502004FF000000CD04B1E52
:10580000194200D0FEE70A44521E9A43B2F5803F87
:1058100002D20C2A01D9104610BD0C2010BD08443C
:105820004A1E401E9043114200D0FEE77047000020
:105830002DE9F0410F4601210025044641862E4600
:105840000BE01B49FBF7F2F910B16D1CADB202E0A1
:10585000608E401C6086761CB6B257F8260010B1E8
:1058600001780029EDD1208EA8421ED0A06A002622
:1058700010B115F09DFAA662E06A10B115F098FA21
:10588000E662E80015F008FAA06238B1680015F089
:1058900003FAE06218B1A16A11B102E0FEE7FEE787
:1058A0000025690015F092FB2586BDE8F081000017
:1058B000F83801082DE9F84F8146407A0F4600F08C
:1058C0000700022819D010468046974200DD3A466C
:1058D000164603202A4C2B4A00EB460020F0030515
:1058E000A06811681035411A636805EB010C9C45EE
:1058F00005D2416821F0004124E00846E4E79D42DA
:1059000019D892464FF0FF3B48196168884210D978
:10591000002269461C48CDF800B00BF0B5FF00220C
:1059200069461A480BF0B0FFA168DAF80000091ABE
:10593000EAE7A068DDE7284615F0AEF9C0B1416896
:1059400041F0004188EA6702416089EA0201016092
:10595000416801F04041491C31F08041416086813D
:10596000A0F80E8005D500F110018160BDE8F88F28
:10597000FEE7A16801F1100229448260A160F5E709
:105980006C010020B0020020CDE40008E9180108F5
:1059900010B5084C012020700748FEF76AFE002869
:1059A000A06803D0BDE810401BF0FEBEBDE810406B
:1059B0001BF0EEBE8802002028C4002010B504466B
:1059C00090F84200A16B820709D4B4F840204AB194
:1059D000A2F57F43FF3B1BD0521EA4F84020B4F831
:1059E0004020AAB909B1820712D521461448FEF712
:1059F000DBFEFFF7CDFFE16809B12046884721694A
:105A000009B1204688472046BDE8104015F0D0B9BE
:105A1000E26B52422263002911D0820702D4626BEA
:105A2000524222634210521C62F3410084F8420049
:105A3000A26A206A2262A062E06AE162A06310BDED
:105A400028C4002070B5304D68681BF0B9FD0646CB
:105A5000687880F00100687047E00020287094F8B2
:105A600042006978C0F380028A4242D061F382002A
:105A700084F84200216B8A19030719D4002917DC26
:105A8000002A15DBC00709D1616939B12046884772
:105A9000216A01442162A16A0844A062A16809B197
:105AA0002046884794F8420040F0080084F84200FD
:105AB000206B8019206316D4E16A884200DD2163DF
:105AC000E169204688470146606A884204D06162E5
:105AD00062680AB120689047D4E90B01814202DB79
